{
  "address": "0x5747c3C2ae7338A875E91dB0f8E487B3A9e69AE2",
  "abi": [
    {
      "inputs": [
        {
          "internalType": "address",
          "name": "priceFeedAddress",
          "type": "address"
        }
      ],
      "stateMutability": "nonpayable",
      "type": "constructor"
    },
    {
      "inputs": [],
      "name": "FundMe__NotOwner",
      "type": "error"
    },
    {
      "stateMutability": "payable",
      "type": "fallback"
    },
    {
      "inputs": [],
      "name": "MINIMUM_USD",
      "outputs": [
        {
          "internalType": "uint256",
          "name": "",
          "type": "uint256"
        }
      ],
      "stateMutability": "view",
      "type": "function"
    },
    {
      "inputs": [
        {
          "internalType": "address",
          "name": "",
          "type": "address"
        }
      ],
      "name": "addressToAmountFunded",
      "outputs": [
        {
          "internalType": "uint256",
          "name": "",
          "type": "uint256"
        }
      ],
      "stateMutability": "view",
      "type": "function"
    },
    {
      "inputs": [],
      "name": "fund",
      "outputs": [],
      "stateMutability": "payable",
      "type": "function"
    },
    {
      "inputs": [
        {
          "internalType": "uint256",
          "name": "",
          "type": "uint256"
        }
      ],
      "name": "funders",
      "outputs": [
        {
          "internalType": "address",
          "name": "",
          "type": "address"
        }
      ],
      "stateMutability": "view",
      "type": "function"
    },
    {
      "inputs": [],
      "name": "i_owner",
      "outputs": [
        {
          "internalType": "address",
          "name": "",
          "type": "address"
        }
      ],
      "stateMutability": "view",
      "type": "function"
    },
    {
      "inputs": [],
      "name": "priceFeed",
      "outputs": [
        {
          "internalType": "contract AggregatorV3Interface",
          "name": "",
          "type": "address"
        }
      ],
      "stateMutability": "view",
      "type": "function"
    },
    {
      "inputs": [],
      "name": "withdraw",
      "outputs": [],
      "stateMutability": "payable",
      "type": "function"
    },
    {
      "stateMutability": "payable",
      "type": "receive"
    }
  ],
  "transactionHash": "0xdf3a66745ff7bec6008903c77bb4b90f60514bdd5974109b4e3524b5d684a103",
  "args": [
    "0x8A753747A1Fa494EC906cE90E9f37563A8AF630e"
  ],
  "numDeployments": 2,
  "solcInputHash": "aaa696de6b568a526f50b5d04128709f",
  "bytecode": "0x60a060405234801561001057600080fd5b5060405162000fda38038062000fda83398181016040528101906100349190610115565b3373ffffffffffffffffffffffffffffffffffffffff1660808173ffffffffffffffffffffffffffffffffffffffff1660601b8152505080600260006101000a81548173ffffffffffffffffffffffffffffffffffffffff021916908373ffffffffffffffffffffffffffffffffffffffff16021790555050610142565b600080fd5b600073ffffffffffffffffffffffffffffffffffffffff82169050919050565b60006100e2826100b7565b9050919050565b6100f2816100d7565b81146100fd57600080fd5b50565b60008151905061010f816100e9565b92915050565b60006020828403121561012b5761012a6100b2565b5b600061013984828501610100565b91505092915050565b60805160601c610e7262000168600039600081816102d801526105630152610e726000f3fe6080604052600436106100745760003560e01c8063741bef1a1161004e578063741bef1a146100ff578063b60d42881461012a578063dba6335f14610134578063dc0d3dff1461015f57610083565b80633ccfd60b1461008d5780633e47d6f3146100975780636b69a592146100d457610083565b366100835761008161019c565b005b61008b61019c565b005b6100956102d6565b005b3480156100a357600080fd5b506100be60048036038101906100b991906107aa565b610516565b6040516100cb91906107f0565b60405180910390f35b3480156100e057600080fd5b506100e961052e565b6040516100f691906107f0565b60405180910390f35b34801561010b57600080fd5b5061011461053b565b604051610121919061086a565b60405180910390f35b61013261019c565b005b34801561014057600080fd5b50610149610561565b6040516101569190610894565b60405180910390f35b34801561016b57600080fd5b50610186600480360381019061018191906108db565b610585565b6040516101939190610894565b60405180910390f35b6802b5e3af16b18800006101db600260009054906101000a900473ffffffffffffffffffffffffffffffffffffffff16346105c490919063ffffffff16565b101561021c576040517f08c379a000000000000000000000000000000000000000000000000000000000815260040161021390610965565b60405180910390fd5b346000803373ffffffffffffffffffffffffffffffffffffffff1673ffffffffffffffffffffffffffffffffffffffff168152602001908152602001600020600082825461026a91906109b4565b925050819055506001339080600181540180825580915050600190039060005260206000200160009091909190916101000a81548173ffffffffffffffffffffffffffffffffffffffff021916908373ffffffffffffffffffffffffffffffffffffffff160217905550565b7f000000000000000000000000000000000000000000000000000000000000000073ffffffffffffffffffffffffffffffffffffffff163373ffffffffffffffffffffffffffffffffffffffff161461035b576040517f579610db00000000000000000000000000000000000000000000000000000000815260040160405180910390fd5b60005b6001805490508110156104065760006001828154811061038157610380610a0a565b5b9060005260206000200160009054906101000a900473ffffffffffffffffffffffffffffffffffffffff16905060008060008373ffffffffffffffffffffffffffffffffffffffff1673ffffffffffffffffffffffffffffffffffffffff168152602001908152602001600020819055505080806103fe90610a39565b91505061035e565b50600067ffffffffffffffff81111561042257610421610a82565b5b6040519080825280602002602001820160405280156104505781602001602082028036833780820191505090505b50600190805190602001906104669291906106a0565b5060003373ffffffffffffffffffffffffffffffffffffffff164760405161048d90610ae2565b60006040518083038185875af1925050503d80600081146104ca576040519150601f19603f3d011682016040523d82523d6000602084013e6104cf565b606091505b5050905080610513576040517f08c379a000000000000000000000000000000000000000000000000000000000815260040161050a90610b43565b60405180910390fd5b50565b60006020528060005260406000206000915090505481565b6802b5e3af16b188000081565b600260009054906101000a900473ffffffffffffffffffffffffffffffffffffffff1681565b7f000000000000000000000000000000000000000000000000000000000000000081565b6001818154811061059557600080fd5b906000526020600020016000915054906101000a900473ffffffffffffffffffffffffffffffffffffffff1681565b6000806105d083610600565b90506000670de0b6b3a764000085836105e99190610b63565b6105f39190610bec565b9050809250505092915050565b6000808273ffffffffffffffffffffffffffffffffffffffff1663feaf968c6040518163ffffffff1660e01b815260040160a06040518083038186803b15801561064957600080fd5b505afa15801561065d573d6000803e3d6000fd5b505050506040513d601f19601f820116820180604052508101906106819190610caa565b5050509150506402540be400816106989190610d25565b915050919050565b828054828255906000526020600020908101928215610719579160200282015b828111156107185782518260006101000a81548173ffffffffffffffffffffffffffffffffffffffff021916908373ffffffffffffffffffffffffffffffffffffffff160217905550916020019190600101906106c0565b5b509050610726919061072a565b5090565b5b8082111561074357600081600090555060010161072b565b5090565b600080fd5b600073ffffffffffffffffffffffffffffffffffffffff82169050919050565b60006107778261074c565b9050919050565b6107878161076c565b811461079257600080fd5b50565b6000813590506107a48161077e565b92915050565b6000602082840312156107c0576107bf610747565b5b60006107ce84828501610795565b91505092915050565b6000819050919050565b6107ea816107d7565b82525050565b600060208201905061080560008301846107e1565b92915050565b6000819050919050565b600061083061082b6108268461074c565b61080b565b61074c565b9050919050565b600061084282610815565b9050919050565b600061085482610837565b9050919050565b61086481610849565b82525050565b600060208201905061087f600083018461085b565b92915050565b61088e8161076c565b82525050565b60006020820190506108a96000830184610885565b92915050565b6108b8816107d7565b81146108c357600080fd5b50565b6000813590506108d5816108af565b92915050565b6000602082840312156108f1576108f0610747565b5b60006108ff848285016108c6565b91505092915050565b600082825260208201905092915050565b7f596f75206e65656420746f207370656e64206d6f726520455448210000000000600082015250565b600061094f601b83610908565b915061095a82610919565b602082019050919050565b6000602082019050818103600083015261097e81610942565b9050919050565b7f4e487b7100000000000000000000000000000000000000000000000000000000600052601160045260246000fd5b60006109bf826107d7565b91506109ca836107d7565b9250827fffffffffffffffffffffffffffffffffffffffffffffffffffffffffffffffff038211156109ff576109fe610985565b5b828201905092915050565b7f4e487b7100000000000000000000000000000000000000000000000000000000600052603260045260246000fd5b6000610a44826107d7565b91507fffffffffffffffffffffffffffffffffffffffffffffffffffffffffffffffff821415610a7757610a76610985565b5b600182019050919050565b7f4e487b7100000000000000000000000000000000000000000000000000000000600052604160045260246000fd5b600081905092915050565b50565b6000610acc600083610ab1565b9150610ad782610abc565b600082019050919050565b6000610aed82610abf565b9150819050919050565b7f43616c6c206661696c6564000000000000000000000000000000000000000000600082015250565b6000610b2d600b83610908565b9150610b3882610af7565b602082019050919050565b60006020820190508181036000830152610b5c81610b20565b9050919050565b6000610b6e826107d7565b9150610b79836107d7565b9250817fffffffffffffffffffffffffffffffffffffffffffffffffffffffffffffffff0483118215151615610bb257610bb1610985565b5b828202905092915050565b7f4e487b7100000000000000000000000000000000000000000000000000000000600052601260045260246000fd5b6000610bf7826107d7565b9150610c02836107d7565b925082610c1257610c11610bbd565b5b828204905092915050565b600069ffffffffffffffffffff82169050919050565b610c3c81610c1d565b8114610c4757600080fd5b50565b600081519050610c5981610c33565b92915050565b6000819050919050565b610c7281610c5f565b8114610c7d57600080fd5b50565b600081519050610c8f81610c69565b92915050565b600081519050610ca4816108af565b92915050565b600080600080600060a08688031215610cc657610cc5610747565b5b6000610cd488828901610c4a565b9550506020610ce588828901610c80565b9450506040610cf688828901610c95565b9350506060610d0788828901610c95565b9250506080610d1888828901610c4a565b9150509295509295909350565b6000610d3082610c5f565b9150610d3b83610c5f565b9250827f7fffffffffffffffffffffffffffffffffffffffffffffffffffffffffffffff0482116000841360008413161615610d7a57610d79610985565b5b817f80000000000000000000000000000000000000000000000000000000000000000583126000841260008413161615610db757610db6610985565b5b827f80000000000000000000000000000000000000000000000000000000000000000582126000841360008412161615610df457610df3610985565b5b827f7fffffffffffffffffffffffffffffffffffffffffffffffffffffffffffffff0582126000841260008412161615610e3157610e30610985565b5b82820290509291505056fea2646970667358221220443098a334cb03a4be895dae2783b26ca6020ea480108d24289fe0a110e9689f64736f6c63430008080033",
  "devdoc": {
    "author": "Kasper Mol",
    "details": "this implements pricefeeds as our library ",
    "kind": "dev",
    "methods": {},
    "title": "A contract for gahtering funds",
    "version": 1
  },
  "userdoc": {
    "kind": "user",
    "methods": {},
    "notice": "This contract is a demo",
    "version": 1
  },
  "storageLayout": {
    "storage": [
      {
        "astId": 59,
        "contract": "contracts/FundMe.sol:FundMe",
        "label": "addressToAmountFunded",
        "offset": 0,
        "slot": "0",
        "type": "t_mapping(t_address,t_uint256)"
      },
      {
        "astId": 62,
        "contract": "contracts/FundMe.sol:FundMe",
        "label": "funders",
        "offset": 0,
        "slot": "1",
        "type": "t_array(t_address)dyn_storage"
      },
      {
        "astId": 74,
        "contract": "contracts/FundMe.sol:FundMe",
        "label": "priceFeed",
        "offset": 0,
        "slot": "2",
        "type": "t_contract(AggregatorV3Interface)45"
      }
    ],
    "types": {
      "t_address": {
        "encoding": "inplace",
        "label": "address",
        "numberOfBytes": "20"
      },
      "t_array(t_address)dyn_storage": {
        "base": "t_address",
        "encoding": "dynamic_array",
        "label": "address[]",
        "numberOfBytes": "32"
      },
      "t_contract(AggregatorV3Interface)45": {
        "encoding": "inplace",
        "label": "contract AggregatorV3Interface",
        "numberOfBytes": "20"
      },
      "t_mapping(t_address,t_uint256)": {
        "encoding": "mapping",
        "key": "t_address",
        "label": "mapping(address => uint256)",
        "numberOfBytes": "32",
        "value": "t_uint256"
      },
      "t_uint256": {
        "encoding": "inplace",
        "label": "uint256",
        "numberOfBytes": "32"
      }
    }
  }
}